{
  "_format": "hh-sol-artifact-1",
  "contractName": "TicketNFT",
  "sourceName": "contracts/TicketNFT.sol",
  "abi": [
    {
      "inputs": [
        {
          "internalType": "address",
          "name": "initialOwner",
          "type": "address"
        }
      ],
      "stateMutability": "nonpayable",
      "type": "constructor"
    },
    {
      "inputs": [
        {
          "internalType": "address",
          "name": "sender",
          "type": "address"
        },
        {
          "internalType": "uint256",
          "name": "tokenId",
          "type": "uint256"
        },
        {
          "internalType": "address",
          "name": "owner",
          "type": "address"
        }
      ],
      "name": "ERC721IncorrectOwner",
      "type": "error"
    },
    {
      "inputs": [
        {
          "internalType": "address",
          "name": "operator",
          "type": "address"
        },
        {
          "internalType": "uint256",
          "name": "tokenId",
          "type": "uint256"
        }
      ],
      "name": "ERC721InsufficientApproval",
      "type": "error"
    },
    {
      "inputs": [
        {
          "internalType": "address",
          "name": "approver",
          "type": "address"
        }
      ],
      "name": "ERC721InvalidApprover",
      "type": "error"
    },
    {
      "inputs": [
        {
          "internalType": "address",
          "name": "operator",
          "type": "address"
        }
      ],
      "name": "ERC721InvalidOperator",
      "type": "error"
    },
    {
      "inputs": [
        {
          "internalType": "address",
          "name": "owner",
          "type": "address"
        }
      ],
      "name": "ERC721InvalidOwner",
      "type": "error"
    },
    {
      "inputs": [
        {
          "internalType": "address",
          "name": "receiver",
          "type": "address"
        }
      ],
      "name": "ERC721InvalidReceiver",
      "type": "error"
    },
    {
      "inputs": [
        {
          "internalType": "address",
          "name": "sender",
          "type": "address"
        }
      ],
      "name": "ERC721InvalidSender",
      "type": "error"
    },
    {
      "inputs": [
        {
          "internalType": "uint256",
          "name": "tokenId",
          "type": "uint256"
        }
      ],
      "name": "ERC721NonexistentToken",
      "type": "error"
    },
    {
      "inputs": [],
      "name": "EnforcedPause",
      "type": "error"
    },
    {
      "inputs": [],
      "name": "ExpectedPause",
      "type": "error"
    },
    {
      "inputs": [
        {
          "internalType": "address",
          "name": "owner",
          "type": "address"
        }
      ],
      "name": "OwnableInvalidOwner",
      "type": "error"
    },
    {
      "inputs": [
        {
          "internalType": "address",
          "name": "account",
          "type": "address"
        }
      ],
      "name": "OwnableUnauthorizedAccount",
      "type": "error"
    },
    {
      "anonymous": false,
      "inputs": [
        {
          "indexed": true,
          "internalType": "address",
          "name": "owner",
          "type": "address"
        },
        {
          "indexed": true,
          "internalType": "address",
          "name": "approved",
          "type": "address"
        },
        {
          "indexed": true,
          "internalType": "uint256",
          "name": "tokenId",
          "type": "uint256"
        }
      ],
      "name": "Approval",
      "type": "event"
    },
    {
      "anonymous": false,
      "inputs": [
        {
          "indexed": true,
          "internalType": "address",
          "name": "owner",
          "type": "address"
        },
        {
          "indexed": true,
          "internalType": "address",
          "name": "operator",
          "type": "address"
        },
        {
          "indexed": false,
          "internalType": "bool",
          "name": "approved",
          "type": "bool"
        }
      ],
      "name": "ApprovalForAll",
      "type": "event"
    },
    {
      "anonymous": false,
      "inputs": [
        {
          "indexed": true,
          "internalType": "uint256",
          "name": "eventId",
          "type": "uint256"
        },
        {
          "indexed": false,
          "internalType": "address",
          "name": "organizer",
          "type": "address"
        },
        {
          "indexed": false,
          "internalType": "uint256",
          "name": "ticketPrice",
          "type": "uint256"
        }
      ],
      "name": "EventCreated",
      "type": "event"
    },
    {
      "anonymous": false,
      "inputs": [
        {
          "indexed": true,
          "internalType": "address",
          "name": "previousOwner",
          "type": "address"
        },
        {
          "indexed": true,
          "internalType": "address",
          "name": "newOwner",
          "type": "address"
        }
      ],
      "name": "OwnershipTransferred",
      "type": "event"
    },
    {
      "anonymous": false,
      "inputs": [
        {
          "indexed": false,
          "internalType": "address",
          "name": "account",
          "type": "address"
        }
      ],
      "name": "Paused",
      "type": "event"
    },
    {
      "anonymous": false,
      "inputs": [
        {
          "indexed": true,
          "internalType": "uint256",
          "name": "tokenId",
          "type": "uint256"
        },
        {
          "indexed": true,
          "internalType": "uint256",
          "name": "eventId",
          "type": "uint256"
        },
        {
          "indexed": false,
          "internalType": "address",
          "name": "buyer",
          "type": "address"
        }
      ],
      "name": "TicketMinted",
      "type": "event"
    },
    {
      "anonymous": false,
      "inputs": [
        {
          "indexed": true,
          "internalType": "uint256",
          "name": "tokenId",
          "type": "uint256"
        },
        {
          "indexed": true,
          "internalType": "uint256",
          "name": "eventId",
          "type": "uint256"
        }
      ],
      "name": "TicketUsed",
      "type": "event"
    },
    {
      "anonymous": false,
      "inputs": [
        {
          "indexed": true,
          "internalType": "address",
          "name": "from",
          "type": "address"
        },
        {
          "indexed": true,
          "internalType": "address",
          "name": "to",
          "type": "address"
        },
        {
          "indexed": true,
          "internalType": "uint256",
          "name": "tokenId",
          "type": "uint256"
        }
      ],
      "name": "Transfer",
      "type": "event"
    },
    {
      "anonymous": false,
      "inputs": [
        {
          "indexed": false,
          "internalType": "address",
          "name": "account",
          "type": "address"
        }
      ],
      "name": "Unpaused",
      "type": "event"
    },
    {
      "inputs": [
        {
          "internalType": "address",
          "name": "_verifier",
          "type": "address"
        }
      ],
      "name": "addVerifier",
      "outputs": [],
      "stateMutability": "nonpayable",
      "type": "function"
    },
    {
      "inputs": [
        {
          "internalType": "address",
          "name": "to",
          "type": "address"
        },
        {
          "internalType": "uint256",
          "name": "tokenId",
          "type": "uint256"
        }
      ],
      "name": "approve",
      "outputs": [],
      "stateMutability": "nonpayable",
      "type": "function"
    },
    {
      "inputs": [
        {
          "internalType": "address",
          "name": "owner",
          "type": "address"
        }
      ],
      "name": "balanceOf",
      "outputs": [
        {
          "internalType": "uint256",
          "name": "",
          "type": "uint256"
        }
      ],
      "stateMutability": "view",
      "type": "function"
    },
    {
      "inputs": [
        {
          "internalType": "uint256",
          "name": "_ticketPrice",
          "type": "uint256"
        },
        {
          "internalType": "uint256",
          "name": "_totalTickets",
          "type": "uint256"
        }
      ],
      "name": "createEvent",
      "outputs": [
        {
          "internalType": "uint256",
          "name": "",
          "type": "uint256"
        }
      ],
      "stateMutability": "nonpayable",
      "type": "function"
    },
    {
      "inputs": [
        {
          "internalType": "uint256",
          "name": "",
          "type": "uint256"
        }
      ],
      "name": "events",
      "outputs": [
        {
          "internalType": "uint256",
          "name": "eventId",
          "type": "uint256"
        },
        {
          "internalType": "address",
          "name": "organizer",
          "type": "address"
        },
        {
          "internalType": "uint256",
          "name": "ticketPrice",
          "type": "uint256"
        },
        {
          "internalType": "uint256",
          "name": "totalTickets",
          "type": "uint256"
        },
        {
          "internalType": "uint256",
          "name": "remainingTickets",
          "type": "uint256"
        },
        {
          "internalType": "bool",
          "name": "isActive",
          "type": "bool"
        }
      ],
      "stateMutability": "view",
      "type": "function"
    },
    {
      "inputs": [
        {
          "internalType": "uint256",
          "name": "tokenId",
          "type": "uint256"
        }
      ],
      "name": "getApproved",
      "outputs": [
        {
          "internalType": "address",
          "name": "",
          "type": "address"
        }
      ],
      "stateMutability": "view",
      "type": "function"
    },
    {
      "inputs": [
        {
          "internalType": "uint256",
          "name": "_tokenId",
          "type": "uint256"
        }
      ],
      "name": "getTicketDetails",
      "outputs": [
        {
          "components": [
            {
              "internalType": "uint256",
              "name": "eventId",
              "type": "uint256"
            },
            {
              "internalType": "string",
              "name": "qrCode",
              "type": "string"
            },
            {
              "internalType": "bool",
              "name": "isUsed",
              "type": "bool"
            },
            {
              "internalType": "uint256",
              "name": "purchaseTime",
              "type": "uint256"
            }
          ],
          "internalType": "struct TicketNFT.Ticket",
          "name": "",
          "type": "tuple"
        }
      ],
      "stateMutability": "view",
      "type": "function"
    },
    {
      "inputs": [
        {
          "internalType": "address",
          "name": "owner",
          "type": "address"
        },
        {
          "internalType": "address",
          "name": "operator",
          "type": "address"
        }
      ],
      "name": "isApprovedForAll",
      "outputs": [
        {
          "internalType": "bool",
          "name": "",
          "type": "bool"
        }
      ],
      "stateMutability": "view",
      "type": "function"
    },
    {
      "inputs": [
        {
          "internalType": "uint256",
          "name": "_eventId",
          "type": "uint256"
        },
        {
          "internalType": "string",
          "name": "_qrCode",
          "type": "string"
        }
      ],
      "name": "mintTicket",
      "outputs": [
        {
          "internalType": "uint256",
          "name": "",
          "type": "uint256"
        }
      ],
      "stateMutability": "payable",
      "type": "function"
    },
    {
      "inputs": [],
      "name": "name",
      "outputs": [
        {
          "internalType": "string",
          "name": "",
          "type": "string"
        }
      ],
      "stateMutability": "view",
      "type": "function"
    },
    {
      "inputs": [],
      "name": "owner",
      "outputs": [
        {
          "internalType": "address",
          "name": "",
          "type": "address"
        }
      ],
      "stateMutability": "view",
      "type": "function"
    },
    {
      "inputs": [
        {
          "internalType": "uint256",
          "name": "tokenId",
          "type": "uint256"
        }
      ],
      "name": "ownerOf",
      "outputs": [
        {
          "internalType": "address",
          "name": "",
          "type": "address"
        }
      ],
      "stateMutability": "view",
      "type": "function"
    },
    {
      "inputs": [],
      "name": "pause",
      "outputs": [],
      "stateMutability": "nonpayable",
      "type": "function"
    },
    {
      "inputs": [],
      "name": "paused",
      "outputs": [
        {
          "internalType": "bool",
          "name": "",
          "type": "bool"
        }
      ],
      "stateMutability": "view",
      "type": "function"
    },
    {
      "inputs": [],
      "name": "renounceOwnership",
      "outputs": [],
      "stateMutability": "nonpayable",
      "type": "function"
    },
    {
      "inputs": [
        {
          "internalType": "address",
          "name": "from",
          "type": "address"
        },
        {
          "internalType": "address",
          "name": "to",
          "type": "address"
        },
        {
          "internalType": "uint256",
          "name": "tokenId",
          "type": "uint256"
        }
      ],
      "name": "safeTransferFrom",
      "outputs": [],
      "stateMutability": "nonpayable",
      "type": "function"
    },
    {
      "inputs": [
        {
          "internalType": "address",
          "name": "from",
          "type": "address"
        },
        {
          "internalType": "address",
          "name": "to",
          "type": "address"
        },
        {
          "internalType": "uint256",
          "name": "tokenId",
          "type": "uint256"
        },
        {
          "internalType": "bytes",
          "name": "data",
          "type": "bytes"
        }
      ],
      "name": "safeTransferFrom",
      "outputs": [],
      "stateMutability": "nonpayable",
      "type": "function"
    },
    {
      "inputs": [
        {
          "internalType": "address",
          "name": "operator",
          "type": "address"
        },
        {
          "internalType": "bool",
          "name": "approved",
          "type": "bool"
        }
      ],
      "name": "setApprovalForAll",
      "outputs": [],
      "stateMutability": "nonpayable",
      "type": "function"
    },
    {
      "inputs": [
        {
          "internalType": "bytes4",
          "name": "interfaceId",
          "type": "bytes4"
        }
      ],
      "name": "supportsInterface",
      "outputs": [
        {
          "internalType": "bool",
          "name": "",
          "type": "bool"
        }
      ],
      "stateMutability": "view",
      "type": "function"
    },
    {
      "inputs": [],
      "name": "symbol",
      "outputs": [
        {
          "internalType": "string",
          "name": "",
          "type": "string"
        }
      ],
      "stateMutability": "view",
      "type": "function"
    },
    {
      "inputs": [
        {
          "internalType": "uint256",
          "name": "",
          "type": "uint256"
        }
      ],
      "name": "tickets",
      "outputs": [
        {
          "internalType": "uint256",
          "name": "eventId",
          "type": "uint256"
        },
        {
          "internalType": "string",
          "name": "qrCode",
          "type": "string"
        },
        {
          "internalType": "bool",
          "name": "isUsed",
          "type": "bool"
        },
        {
          "internalType": "uint256",
          "name": "purchaseTime",
          "type": "uint256"
        }
      ],
      "stateMutability": "view",
      "type": "function"
    },
    {
      "inputs": [
        {
          "internalType": "uint256",
          "name": "tokenId",
          "type": "uint256"
        }
      ],
      "name": "tokenURI",
      "outputs": [
        {
          "internalType": "string",
          "name": "",
          "type": "string"
        }
      ],
      "stateMutability": "view",
      "type": "function"
    },
    {
      "inputs": [
        {
          "internalType": "address",
          "name": "from",
          "type": "address"
        },
        {
          "internalType": "address",
          "name": "to",
          "type": "address"
        },
        {
          "internalType": "uint256",
          "name": "tokenId",
          "type": "uint256"
        }
      ],
      "name": "transferFrom",
      "outputs": [],
      "stateMutability": "nonpayable",
      "type": "function"
    },
    {
      "inputs": [
        {
          "internalType": "address",
          "name": "newOwner",
          "type": "address"
        }
      ],
      "name": "transferOwnership",
      "outputs": [],
      "stateMutability": "nonpayable",
      "type": "function"
    },
    {
      "inputs": [],
      "name": "unpause",
      "outputs": [],
      "stateMutability": "nonpayable",
      "type": "function"
    },
    {
      "inputs": [
        {
          "internalType": "uint256",
          "name": "_tokenId",
          "type": "uint256"
        }
      ],
      "name": "useTicket",
      "outputs": [],
      "stateMutability": "nonpayable",
      "type": "function"
    },
    {
      "inputs": [
        {
          "internalType": "address",
          "name": "",
          "type": "address"
        }
      ],
      "name": "verifiers",
      "outputs": [
        {
          "internalType": "bool",
          "name": "",
          "type": "bool"
        }
      ],
      "stateMutability": "view",
      "type": "function"
    }
  ],
  "bytecode": "0x60806040523480156200001157600080fd5b5060405162003c1338038062003c138339818101604052810190620000379190620002a3565b806040518060400160405280600e81526020017f436f6e63657274205469636b65740000000000000000000000000000000000008152506040518060400160405280600481526020017f54434b54000000000000000000000000000000000000000000000000000000008152508160009081620000b591906200054f565b508060019081620000c791906200054f565b5050506000600660006101000a81548160ff021916908315150217905550600073ffffffffffffffffffffffffffffffffffffffff168173ffffffffffffffffffffffffffffffffffffffff16036200015a5760006040517f1e4fbdf700000000000000000000000000000000000000000000000000000000815260040162000151919062000647565b60405180910390fd5b6200016b816200017360201b60201c565b505062000664565b6000600660019054906101000a900473ffffffffffffffffffffffffffffffffffffffff16905081600660016101000a81548173ffffffffffffffffffffffffffffffffffffffff021916908373ffffffffffffffffffffffffffffffffffffffff1602179055508173ffffffffffffffffffffffffffffffffffffffff168173ffffffffffffffffffffffffffffffffffffffff167f8be0079c531659141344cd1fd0a4f28419497f9722a3daafe3b4186f6b6457e060405160405180910390a35050565b600080fd5b600073ffffffffffffffffffffffffffffffffffffffff82169050919050565b60006200026b826200023e565b9050919050565b6200027d816200025e565b81146200028957600080fd5b50565b6000815190506200029d8162000272565b92915050565b600060208284031215620002bc57620002bb62000239565b5b6000620002cc848285016200028c565b91505092915050565b600081519050919050565b7f4e487b7100000000000000000000000000000000000000000000000000000000600052604160045260246000fd5b7f4e487b7100000000000000000000000000000000000000000000000000000000600052602260045260246000fd5b600060028204905060018216806200035757607f821691505b6020821081036200036d576200036c6200030f565b5b50919050565b60008190508160005260206000209050919050565b60006020601f8301049050919050565b600082821b905092915050565b600060088302620003d77fffffffffffffffffffffffffffffffffffffffffffffffffffffffffffffffff8262000398565b620003e3868362000398565b95508019841693508086168417925050509392505050565b6000819050919050565b6000819050919050565b6000620004306200042a6200042484620003fb565b62000405565b620003fb565b9050919050565b6000819050919050565b6200044c836200040f565b620004646200045b8262000437565b848454620003a5565b825550505050565b600090565b6200047b6200046c565b6200048881848462000441565b505050565b5b81811015620004b057620004a460008262000471565b6001810190506200048e565b5050565b601f821115620004ff57620004c98162000373565b620004d48462000388565b81016020851015620004e4578190505b620004fc620004f38562000388565b8301826200048d565b50505b505050565b600082821c905092915050565b6000620005246000198460080262000504565b1980831691505092915050565b60006200053f838362000511565b9150826002028217905092915050565b6200055a82620002d5565b67ffffffffffffffff811115620005765762000575620002e0565b5b6200058282546200033e565b6200058f828285620004b4565b600060209050601f831160018114620005c75760008415620005b2578287015190505b620005be858262000531565b8655506200062e565b601f198416620005d78662000373565b60005b828110156200060157848901518255600182019150602085019450602081019050620005da565b868310156200062157848901516200061d601f89168262000511565b8355505b6001600288020188555050505b505050505050565b62000641816200025e565b82525050565b60006020820190506200065e600083018462000636565b92915050565b61359f80620006746000396000f3fe60806040526004361061019c5760003560e01c80636352211e116100ec5780639000b3d61161008a578063b88d4fde11610064578063b88d4fde146105e5578063c87b56dd1461060e578063e985e9c51461064b578063f2fde38b146106885761019c565b80639000b3d61461056857806395d89b4114610591578063a22cb465146105bc5761019c565b8063715018a6116100c6578063715018a6146104d2578063790c0125146104e95780638456cb59146105265780638da5cb5b1461053d5761019c565b80636352211e1461041b5780636c8244871461045857806370a08231146104955761019c565b806323b872dd116101595780633f4ba83a116101335780633f4ba83a1461037057806342842e0e1461038757806350b44712146103b05780635c975abb146103f05761019c565b806323b872dd146102e157806324c141601461030a57806326606448146103475761019c565b806301ffc9a7146101a157806306fdde03146101de578063081812fc14610209578063095ea7b3146102465780630b7914301461026f57806319e2a211146102b1575b600080fd5b3480156101ad57600080fd5b506101c860048036038101906101c391906125b2565b6106b1565b6040516101d591906125fa565b60405180910390f35b3480156101ea57600080fd5b506101f3610793565b60405161020091906126a5565b60405180910390f35b34801561021557600080fd5b50610230600480360381019061022b91906126fd565b610825565b60405161023d919061276b565b60405180910390f35b34801561025257600080fd5b5061026d600480360381019061026891906127b2565b610841565b005b34801561027b57600080fd5b50610296600480360381019061029191906126fd565b610857565b6040516102a896959493929190612801565b60405180910390f35b6102cb60048036038101906102c69190612997565b6108c0565b6040516102d891906129f3565b60405180910390f35b3480156102ed57600080fd5b5061030860048036038101906103039190612a0e565b610b26565b005b34801561031657600080fd5b50610331600480360381019061032c91906126fd565b610c28565b60405161033e9190612b2c565b60405180910390f35b34801561035357600080fd5b5061036e600480360381019061036991906126fd565b610d16565b005b34801561037c57600080fd5b50610385610e7c565b005b34801561039357600080fd5b506103ae60048036038101906103a99190612a0e565b610e8e565b005b3480156103bc57600080fd5b506103d760048036038101906103d291906126fd565b610eae565b6040516103e79493929190612b4e565b60405180910390f35b3480156103fc57600080fd5b50610405610f73565b60405161041291906125fa565b60405180910390f35b34801561042757600080fd5b50610442600480360381019061043d91906126fd565b610f8a565b60405161044f919061276b565b60405180910390f35b34801561046457600080fd5b5061047f600480360381019061047a9190612b9a565b610f9c565b60405161048c91906125fa565b60405180910390f35b3480156104a157600080fd5b506104bc60048036038101906104b79190612b9a565b610fbc565b6040516104c991906129f3565b60405180910390f35b3480156104de57600080fd5b506104e7611076565b005b3480156104f557600080fd5b50610510600480360381019061050b9190612bc7565b61108a565b60405161051d91906129f3565b60405180910390f35b34801561053257600080fd5b5061053b6111da565b005b34801561054957600080fd5b506105526111ec565b60405161055f919061276b565b60405180910390f35b34801561057457600080fd5b5061058f600480360381019061058a9190612b9a565b611216565b005b34801561059d57600080fd5b506105a6611279565b6040516105b391906126a5565b60405180910390f35b3480156105c857600080fd5b506105e360048036038101906105de9190612c33565b61130b565b005b3480156105f157600080fd5b5061060c60048036038101906106079190612d14565b611321565b005b34801561061a57600080fd5b50610635600480360381019061063091906126fd565b611346565b60405161064291906126a5565b60405180910390f35b34801561065757600080fd5b50610672600480360381019061066d9190612d97565b6113af565b60405161067f91906125fa565b60405180910390f35b34801561069457600080fd5b506106af60048036038101906106aa9190612b9a565b611443565b005b60007f80ac58cd000000000000000000000000000000000000000000000000000000007bffffffffffffffffffffffffffffffffffffffffffffffffffffffff1916827bffffffffffffffffffffffffffffffffffffffffffffffffffffffff1916148061077c57507f5b5e139f000000000000000000000000000000000000000000000000000000007bffffffffffffffffffffffffffffffffffffffffffffffffffffffff1916827bffffffffffffffffffffffffffffffffffffffffffffffffffffffff1916145b8061078c575061078b826114c9565b5b9050919050565b6060600080546107a290612e06565b80601f01602080910402602001604051908101604052809291908181526020018280546107ce90612e06565b801561081b5780601f106107f05761010080835404028352916020019161081b565b820191906000526020600020905b8154815290600101906020018083116107fe57829003601f168201915b5050505050905090565b600061083082611533565b5061083a826115bb565b9050919050565b610853828261084e6115f8565b611600565b5050565b60086020528060005260406000206000915090508060000154908060010160009054906101000a900473ffffffffffffffffffffffffffffffffffffffff16908060020154908060030154908060040154908060050160009054906101000a900460ff16905086565b6000806008600085815260200190815260200160002090508060050160009054906101000a900460ff16610929576040517f08c379a000000000000000000000000000000000000000000000000000000000815260040161092090612ea9565b60405180910390fd5b6000816004015411610970576040517f08c379a000000000000000000000000000000000000000000000000000000000815260040161096790612f15565b60405180910390fd5b80600201543410156109b7576040517f08c379a00000000000000000000000000000000000000000000000000000000081526004016109ae90612f81565b60405180910390fd5b6109c16007611612565b60006109cd6007611628565b90506109d93382611636565b60405180608001604052808681526020018581526020016000151581526020014281525060096000838152602001908152602001600020600082015181600001556020820151816001019081610a2f919061314d565b5060408201518160020160006101000a81548160ff02191690831515021790555060608201518160030155905050816004016000815480929190610a729061324e565b91905055508160010160009054906101000a900473ffffffffffffffffffffffffffffffffffffffff1673ffffffffffffffffffffffffffffffffffffffff166108fc349081150290604051600060405180830381858888f19350505050158015610ae1573d6000803e3d6000fd5b5084817f085ec0eff4bf526b0dd054adffcd8bd8da42126a1133ce302042973f32029fb033604051610b13919061276b565b60405180910390a3809250505092915050565b600073ffffffffffffffffffffffffffffffffffffffff168273ffffffffffffffffffffffffffffffffffffffff1603610b985760006040517f64a0ae92000000000000000000000000000000000000000000000000000000008152600401610b8f919061276b565b60405180910390fd5b6000610bac8383610ba76115f8565b611654565b90508373ffffffffffffffffffffffffffffffffffffffff168173ffffffffffffffffffffffffffffffffffffffff1614610c22578382826040517f64283d7b000000000000000000000000000000000000000000000000000000008152600401610c1993929190613277565b60405180910390fd5b50505050565b610c3061251c565b6009600083815260200190815260200160002060405180608001604052908160008201548152602001600182018054610c6890612e06565b80601f0160208091040260200160405190810160405280929190818152602001828054610c9490612e06565b8015610ce15780601f10610cb657610100808354040283529160200191610ce1565b820191906000526020600020905b815481529060010190602001808311610cc457829003601f168201915b505050505081526020016002820160009054906101000a900460ff161515151581526020016003820154815250509050919050565b600a60003373ffffffffffffffffffffffffffffffffffffffff1673ffffffffffffffffffffffffffffffffffffffff16815260200190815260200160002060009054906101000a900460ff16610da2576040517f08c379a0000000000000000000000000000000000000000000000000000000008152600401610d99906132fa565b60405180910390fd5b6009600082815260200190815260200160002060020160009054906101000a900460ff1615610e06576040517f08c379a0000000000000000000000000000000000000000000000000000000008152600401610dfd90613366565b60405180910390fd5b60016009600083815260200190815260200160002060020160006101000a81548160ff0219169083151502179055506009600082815260200190815260200160002060000154817fad0a02848182e7d3a9bb0ae2cc919bdef92f9da6b0a45ced3656cf5443212ede60405160405180910390a350565b610e84611672565b610e8c6116f9565b565b610ea983838360405180602001604052806000815250611321565b505050565b6009602052806000526040600020600091509050806000015490806001018054610ed790612e06565b80601f0160208091040260200160405190810160405280929190818152602001828054610f0390612e06565b8015610f505780601f10610f2557610100808354040283529160200191610f50565b820191906000526020600020905b815481529060010190602001808311610f3357829003601f168201915b5050505050908060020160009054906101000a900460ff16908060030154905084565b6000600660009054906101000a900460ff16905090565b6000610f9582611533565b9050919050565b600a6020528060005260406000206000915054906101000a900460ff1681565b60008073ffffffffffffffffffffffffffffffffffffffff168273ffffffffffffffffffffffffffffffffffffffff160361102f5760006040517f89c62b64000000000000000000000000000000000000000000000000000000008152600401611026919061276b565b60405180910390fd5b600360008373ffffffffffffffffffffffffffffffffffffffff1673ffffffffffffffffffffffffffffffffffffffff168152602001908152602001600020549050919050565b61107e611672565b611088600061175c565b565b6000600b600081548092919061109f90613386565b91905055506040518060c00160405280600b5481526020013373ffffffffffffffffffffffffffffffffffffffff1681526020018481526020018381526020018381526020016001151581525060086000600b5481526020019081526020016000206000820151816000015560208201518160010160006101000a81548173ffffffffffffffffffffffffffffffffffffffff021916908373ffffffffffffffffffffffffffffffffffffffff16021790555060408201518160020155606082015181600301556080820151816004015560a08201518160050160006101000a81548160ff021916908315150217905550905050600b547f5bf82acf722e0e26aac00d3cafc380a1032367879f900d55c554ac438c9990b533856040516111c79291906133ce565b60405180910390a2600b54905092915050565b6111e2611672565b6111ea611822565b565b6000600660019054906101000a900473ffffffffffffffffffffffffffffffffffffffff16905090565b61121e611672565b6001600a60008373ffffffffffffffffffffffffffffffffffffffff1673ffffffffffffffffffffffffffffffffffffffff16815260200190815260200160002060006101000a81548160ff02191690831515021790555050565b60606001805461128890612e06565b80601f01602080910402602001604051908101604052809291908181526020018280546112b490612e06565b80156113015780601f106112d657610100808354040283529160200191611301565b820191906000526020600020905b8154815290600101906020018083116112e457829003601f168201915b5050505050905090565b61131d6113166115f8565b8383611885565b5050565b61132c848484610b26565b6113406113376115f8565b858585856119f4565b50505050565b606061135182611533565b50600061135c611ba5565b9050600081511161137c57604051806020016040528060008152506113a7565b8061138684611bbc565b604051602001611397929190613433565b6040516020818303038152906040525b915050919050565b6000600560008473ffffffffffffffffffffffffffffffffffffffff1673ffffffffffffffffffffffffffffffffffffffff16815260200190815260200160002060008373ffffffffffffffffffffffffffffffffffffffff1673ffffffffffffffffffffffffffffffffffffffff16815260200190815260200160002060009054906101000a900460ff16905092915050565b61144b611672565b600073ffffffffffffffffffffffffffffffffffffffff168173ffffffffffffffffffffffffffffffffffffffff16036114bd5760006040517f1e4fbdf70000000000000000000000000000000000000000000000000000000081526004016114b4919061276b565b60405180910390fd5b6114c68161175c565b50565b60007f01ffc9a7000000000000000000000000000000000000000000000000000000007bffffffffffffffffffffffffffffffffffffffffffffffffffffffff1916827bffffffffffffffffffffffffffffffffffffffffffffffffffffffff1916149050919050565b60008061153f83611c8a565b9050600073ffffffffffffffffffffffffffffffffffffffff168173ffffffffffffffffffffffffffffffffffffffff16036115b257826040517f7e2732890000000000000000000000000000000000000000000000000000000081526004016115a991906129f3565b60405180910390fd5b80915050919050565b60006004600083815260200190815260200160002060009054906101000a900473ffffffffffffffffffffffffffffffffffffffff169050919050565b600033905090565b61160d8383836001611cc7565b505050565b6001816000016000828254019250508190555050565b600081600001549050919050565b611650828260405180602001604052806000815250611e8c565b5050565b600061165e611eb0565b611669848484611ef1565b90509392505050565b61167a6115f8565b73ffffffffffffffffffffffffffffffffffffffff166116986111ec565b73ffffffffffffffffffffffffffffffffffffffff16146116f7576116bb6115f8565b6040517f118cdaa70000000000000000000000000000000000000000000000000000000081526004016116ee919061276b565b60405180910390fd5b565b61170161210b565b6000600660006101000a81548160ff0219169083151502179055507f5db9ee0a495bf2e6ff9c91a7834c1ba4fdd244a5e8aa4e537bd38aeae4b073aa6117456115f8565b604051611752919061276b565b60405180910390a1565b6000600660019054906101000a900473ffffffffffffffffffffffffffffffffffffffff16905081600660016101000a81548173ffffffffffffffffffffffffffffffffffffffff021916908373ffffffffffffffffffffffffffffffffffffffff1602179055508173ffffffffffffffffffffffffffffffffffffffff168173ffffffffffffffffffffffffffffffffffffffff167f8be0079c531659141344cd1fd0a4f28419497f9722a3daafe3b4186f6b6457e060405160405180910390a35050565b61182a611eb0565b6001600660006101000a81548160ff0219169083151502179055507f62e78cea01bee320cd4e420270b5ea74000d11b0c9f74754ebdbfc544b05a25861186e6115f8565b60405161187b919061276b565b60405180910390a1565b600073ffffffffffffffffffffffffffffffffffffffff168273ffffffffffffffffffffffffffffffffffffffff16036118f657816040517f5b08ba180000000000000000000000000000000000000000000000000000000081526004016118ed919061276b565b60405180910390fd5b80600560008573ffffffffffffffffffffffffffffffffffffffff1673ffffffffffffffffffffffffffffffffffffffff16815260200190815260200160002060008473ffffffffffffffffffffffffffffffffffffffff1673ffffffffffffffffffffffffffffffffffffffff16815260200190815260200160002060006101000a81548160ff0219169083151502179055508173ffffffffffffffffffffffffffffffffffffffff168373ffffffffffffffffffffffffffffffffffffffff167f17307eab39ab6107e8899845ad3d59bd9653f200f220920489ca2b5937696c31836040516119e791906125fa565b60405180910390a3505050565b60008373ffffffffffffffffffffffffffffffffffffffff163b1115611b9e578273ffffffffffffffffffffffffffffffffffffffff1663150b7a02868685856040518563ffffffff1660e01b8152600401611a5394939291906134ac565b6020604051808303816000875af1925050508015611a8f57506040513d601f19601f82011682018060405250810190611a8c919061350d565b60015b611b13573d8060008114611abf576040519150601f19603f3d011682016040523d82523d6000602084013e611ac4565b606091505b506000815103611b0b57836040517f64a0ae92000000000000000000000000000000000000000000000000000000008152600401611b02919061276b565b60405180910390fd5b805181602001fd5b63150b7a0260e01b7bffffffffffffffffffffffffffffffffffffffffffffffffffffffff1916817bffffffffffffffffffffffffffffffffffffffffffffffffffffffff191614611b9c57836040517f64a0ae92000000000000000000000000000000000000000000000000000000008152600401611b93919061276b565b60405180910390fd5b505b5050505050565b606060405180602001604052806000815250905090565b606060006001611bcb8461214b565b01905060008167ffffffffffffffff811115611bea57611be961286c565b5b6040519080825280601f01601f191660200182016040528015611c1c5781602001600182028036833780820191505090505b509050600082602001820190505b600115611c7f578080600190039150507f3031323334353637383961626364656600000000000000000000000000000000600a86061a8153600a8581611c7357611c7261353a565b5b04945060008503611c2a575b819350505050919050565b60006002600083815260200190815260200160002060009054906101000a900473ffffffffffffffffffffffffffffffffffffffff169050919050565b8080611d005750600073ffffffffffffffffffffffffffffffffffffffff168273ffffffffffffffffffffffffffffffffffffffff1614155b15611e34576000611d1084611533565b9050600073ffffffffffffffffffffffffffffffffffffffff168373ffffffffffffffffffffffffffffffffffffffff1614158015611d7b57508273ffffffffffffffffffffffffffffffffffffffff168173ffffffffffffffffffffffffffffffffffffffff1614155b8015611d8e5750611d8c81846113af565b155b15611dd057826040517fa9fbf51f000000000000000000000000000000000000000000000000000000008152600401611dc7919061276b565b60405180910390fd5b8115611e3257838573ffffffffffffffffffffffffffffffffffffffff168273ffffffffffffffffffffffffffffffffffffffff167f8c5be1e5ebec7d5bd14f71427d1e84f3dd0314c0f7b2291e5b200ac8c7c3b92560405160405180910390a45b505b836004600085815260200190815260200160002060006101000a81548173ffffffffffffffffffffffffffffffffffffffff021916908373ffffffffffffffffffffffffffffffffffffffff16021790555050505050565b611e96838361229e565b611eab611ea16115f8565b60008585856119f4565b505050565b611eb8610f73565b15611eef576040517fd93c066500000000000000000000000000000000000000000000000000000000815260040160405180910390fd5b565b600080611efd84611c8a565b9050600073ffffffffffffffffffffffffffffffffffffffff168373ffffffffffffffffffffffffffffffffffffffff1614611f3f57611f3e818486612397565b5b600073ffffffffffffffffffffffffffffffffffffffff168173ffffffffffffffffffffffffffffffffffffffff1614611fd057611f81600085600080611cc7565b6001600360008373ffffffffffffffffffffffffffffffffffffffff1673ffffffffffffffffffffffffffffffffffffffff168152602001908152602001600020600082825403925050819055505b600073ffffffffffffffffffffffffffffffffffffffff168573ffffffffffffffffffffffffffffffffffffffff1614612053576001600360008773ffffffffffffffffffffffffffffffffffffffff1673ffffffffffffffffffffffffffffffffffffffff168152602001908152602001600020600082825401925050819055505b846002600086815260200190815260200160002060006101000a81548173ffffffffffffffffffffffffffffffffffffffff021916908373ffffffffffffffffffffffffffffffffffffffff160217905550838573ffffffffffffffffffffffffffffffffffffffff168273ffffffffffffffffffffffffffffffffffffffff167fddf252ad1be2c89b69c2b068fc378daa952ba7f163c4a11628f55a4df523b3ef60405160405180910390a4809150509392505050565b612113610f73565b612149576040517f8dfc202b00000000000000000000000000000000000000000000000000000000815260040160405180910390fd5b565b600080600090507a184f03e93ff9f4daa797ed6e38ed64bf6a1f01000000000000000083106121a9577a184f03e93ff9f4daa797ed6e38ed64bf6a1f010000000000000000838161219f5761219e61353a565b5b0492506040810190505b6d04ee2d6d415b85acef810000000083106121e6576d04ee2d6d415b85acef810000000083816121dc576121db61353a565b5b0492506020810190505b662386f26fc10000831061221557662386f26fc10000838161220b5761220a61353a565b5b0492506010810190505b6305f5e100831061223e576305f5e10083816122345761223361353a565b5b0492506008810190505b61271083106122635761271083816122595761225861353a565b5b0492506004810190505b60648310612286576064838161227c5761227b61353a565b5b0492506002810190505b600a8310612295576001810190505b80915050919050565b600073ffffffffffffffffffffffffffffffffffffffff168273ffffffffffffffffffffffffffffffffffffffff16036123105760006040517f64a0ae92000000000000000000000000000000000000000000000000000000008152600401612307919061276b565b60405180910390fd5b600061231e83836000611654565b9050600073ffffffffffffffffffffffffffffffffffffffff168173ffffffffffffffffffffffffffffffffffffffff16146123925760006040517f73c6ac6e000000000000000000000000000000000000000000000000000000008152600401612389919061276b565b60405180910390fd5b505050565b6123a283838361245b565b61245657600073ffffffffffffffffffffffffffffffffffffffff168373ffffffffffffffffffffffffffffffffffffffff160361241757806040517f7e27328900000000000000000000000000000000000000000000000000000000815260040161240e91906129f3565b60405180910390fd5b81816040517f177e802f00000000000000000000000000000000000000000000000000000000815260040161244d9291906133ce565b60405180910390fd5b505050565b60008073ffffffffffffffffffffffffffffffffffffffff168373ffffffffffffffffffffffffffffffffffffffff161415801561251357508273ffffffffffffffffffffffffffffffffffffffff168473ffffffffffffffffffffffffffffffffffffffff1614806124d457506124d384846113af565b5b8061251257508273ffffffffffffffffffffffffffffffffffffffff166124fa836115bb565b73ffffffffffffffffffffffffffffffffffffffff16145b5b90509392505050565b60405180608001604052806000815260200160608152602001600015158152602001600081525090565b6000604051905090565b600080fd5b600080fd5b60007fffffffff0000000000000000000000000000000000000000000000000000000082169050919050565b61258f8161255a565b811461259a57600080fd5b50565b6000813590506125ac81612586565b92915050565b6000602082840312156125c8576125c7612550565b5b60006125d68482850161259d565b91505092915050565b60008115159050919050565b6125f4816125df565b82525050565b600060208201905061260f60008301846125eb565b92915050565b600081519050919050565b600082825260208201905092915050565b60005b8381101561264f578082015181840152602081019050612634565b60008484015250505050565b6000601f19601f8301169050919050565b600061267782612615565b6126818185612620565b9350612691818560208601612631565b61269a8161265b565b840191505092915050565b600060208201905081810360008301526126bf818461266c565b905092915050565b6000819050919050565b6126da816126c7565b81146126e557600080fd5b50565b6000813590506126f7816126d1565b92915050565b60006020828403121561271357612712612550565b5b6000612721848285016126e8565b91505092915050565b600073ffffffffffffffffffffffffffffffffffffffff82169050919050565b60006127558261272a565b9050919050565b6127658161274a565b82525050565b6000602082019050612780600083018461275c565b92915050565b61278f8161274a565b811461279a57600080fd5b50565b6000813590506127ac81612786565b92915050565b600080604083850312156127c9576127c8612550565b5b60006127d78582860161279d565b92505060206127e8858286016126e8565b9150509250929050565b6127fb816126c7565b82525050565b600060c08201905061281660008301896127f2565b612823602083018861275c565b61283060408301876127f2565b61283d60608301866127f2565b61284a60808301856127f2565b61285760a08301846125eb565b979650505050505050565b600080fd5b600080fd5b7f4e487b7100000000000000000000000000000000000000000000000000000000600052604160045260246000fd5b6128a48261265b565b810181811067ffffffffffffffff821117156128c3576128c261286c565b5b80604052505050565b60006128d6612546565b90506128e2828261289b565b919050565b600067ffffffffffffffff8211156129025761290161286c565b5b61290b8261265b565b9050602081019050919050565b82818337600083830152505050565b600061293a612935846128e7565b6128cc565b90508281526020810184848401111561295657612955612867565b5b612961848285612918565b509392505050565b600082601f83011261297e5761297d612862565b5b813561298e848260208601612927565b91505092915050565b600080604083850312156129ae576129ad612550565b5b60006129bc858286016126e8565b925050602083013567ffffffffffffffff8111156129dd576129dc612555565b5b6129e985828601612969565b9150509250929050565b6000602082019050612a0860008301846127f2565b92915050565b600080600060608486031215612a2757612a26612550565b5b6000612a358682870161279d565b9350506020612a468682870161279d565b9250506040612a57868287016126e8565b9150509250925092565b612a6a816126c7565b82525050565b600082825260208201905092915050565b6000612a8c82612615565b612a968185612a70565b9350612aa6818560208601612631565b612aaf8161265b565b840191505092915050565b612ac3816125df565b82525050565b6000608083016000830151612ae16000860182612a61565b5060208301518482036020860152612af98282612a81565b9150506040830151612b0e6040860182612aba565b506060830151612b216060860182612a61565b508091505092915050565b60006020820190508181036000830152612b468184612ac9565b905092915050565b6000608082019050612b6360008301876127f2565b8181036020830152612b75818661266c565b9050612b8460408301856125eb565b612b9160608301846127f2565b95945050505050565b600060208284031215612bb057612baf612550565b5b6000612bbe8482850161279d565b91505092915050565b60008060408385031215612bde57612bdd612550565b5b6000612bec858286016126e8565b9250506020612bfd858286016126e8565b9150509250929050565b612c10816125df565b8114612c1b57600080fd5b50565b600081359050612c2d81612c07565b92915050565b60008060408385031215612c4a57612c49612550565b5b6000612c588582860161279d565b9250506020612c6985828601612c1e565b9150509250929050565b600067ffffffffffffffff821115612c8e57612c8d61286c565b5b612c978261265b565b9050602081019050919050565b6000612cb7612cb284612c73565b6128cc565b905082815260208101848484011115612cd357612cd2612867565b5b612cde848285612918565b509392505050565b600082601f830112612cfb57612cfa612862565b5b8135612d0b848260208601612ca4565b91505092915050565b60008060008060808587031215612d2e57612d2d612550565b5b6000612d3c8782880161279d565b9450506020612d4d8782880161279d565b9350506040612d5e878288016126e8565b925050606085013567ffffffffffffffff811115612d7f57612d7e612555565b5b612d8b87828801612ce6565b91505092959194509250565b60008060408385031215612dae57612dad612550565b5b6000612dbc8582860161279d565b9250506020612dcd8582860161279d565b9150509250929050565b7f4e487b7100000000000000000000000000000000000000000000000000000000600052602260045260246000fd5b60006002820490506001821680612e1e57607f821691505b602082108103612e3157612e30612dd7565b5b50919050565b7f4576656e7420646f6573206e6f74206578697374206f72206973206e6f74206160008201527f6374697665000000000000000000000000000000000000000000000000000000602082015250565b6000612e93602583612620565b9150612e9e82612e37565b604082019050919050565b60006020820190508181036000830152612ec281612e86565b9050919050565b7f4e6f207469636b65747320617661696c61626c65000000000000000000000000600082015250565b6000612eff601483612620565b9150612f0a82612ec9565b602082019050919050565b60006020820190508181036000830152612f2e81612ef2565b9050919050565b7f496e73756666696369656e74207061796d656e74000000000000000000000000600082015250565b6000612f6b601483612620565b9150612f7682612f35565b602082019050919050565b60006020820190508181036000830152612f9a81612f5e565b9050919050565b60008190508160005260206000209050919050565b60006020601f8301049050919050565b600082821b905092915050565b6000600883026130037fffffffffffffffffffffffffffffffffffffffffffffffffffffffffffffffff82612fc6565b61300d8683612fc6565b95508019841693508086168417925050509392505050565b6000819050919050565b600061304a613045613040846126c7565b613025565b6126c7565b9050919050565b6000819050919050565b6130648361302f565b61307861307082613051565b848454612fd3565b825550505050565b600090565b61308d613080565b61309881848461305b565b505050565b5b818110156130bc576130b1600082613085565b60018101905061309e565b5050565b601f821115613101576130d281612fa1565b6130db84612fb6565b810160208510156130ea578190505b6130fe6130f685612fb6565b83018261309d565b50505b505050565b600082821c905092915050565b600061312460001984600802613106565b1980831691505092915050565b600061313d8383613113565b9150826002028217905092915050565b61315682612615565b67ffffffffffffffff81111561316f5761316e61286c565b5b6131798254612e06565b6131848282856130c0565b600060209050601f8311600181146131b757600084156131a5578287015190505b6131af8582613131565b865550613217565b601f1984166131c586612fa1565b60005b828110156131ed578489015182556001820191506020850194506020810190506131c8565b8683101561320a5784890151613206601f891682613113565b8355505b6001600288020188555050505b505050505050565b7f4e487b7100000000000000000000000000000000000000000000000000000000600052601160045260246000fd5b6000613259826126c7565b91506000820361326c5761326b61321f565b5b600182039050919050565b600060608201905061328c600083018661275c565b61329960208301856127f2565b6132a6604083018461275c565b949350505050565b7f4e6f7420617574686f72697a656420746f20766572696679207469636b657473600082015250565b60006132e4602083612620565b91506132ef826132ae565b602082019050919050565b60006020820190508181036000830152613313816132d7565b9050919050565b7f5469636b657420616c7265616479207573656400000000000000000000000000600082015250565b6000613350601383612620565b915061335b8261331a565b602082019050919050565b6000602082019050818103600083015261337f81613343565b9050919050565b6000613391826126c7565b91507fffffffffffffffffffffffffffffffffffffffffffffffffffffffffffffffff82036133c3576133c261321f565b5b600182019050919050565b60006040820190506133e3600083018561275c565b6133f060208301846127f2565b9392505050565b600081905092915050565b600061340d82612615565b61341781856133f7565b9350613427818560208601612631565b80840191505092915050565b600061343f8285613402565b915061344b8284613402565b91508190509392505050565b600081519050919050565b600082825260208201905092915050565b600061347e82613457565b6134888185613462565b9350613498818560208601612631565b6134a18161265b565b840191505092915050565b60006080820190506134c1600083018761275c565b6134ce602083018661275c565b6134db60408301856127f2565b81810360608301526134ed8184613473565b905095945050505050565b60008151905061350781612586565b92915050565b60006020828403121561352357613522612550565b5b6000613531848285016134f8565b91505092915050565b7f4e487b7100000000000000000000000000000000000000000000000000000000600052601260045260246000fdfea2646970667358221220906272760f2eaa33dfb5f333579645cad4e03fd3ba432769f9ec2a48fa1af55764736f6c63430008140033",
  "linkReferences": {},
  "deployedLinkReferences": {}
}