{
  "_format": "hh-sol-artifact-1",
  "contractName": "Pausable",
  "sourceName": "contracts/Pausable.sol",
  "abi": [
    {
      "inputs": [],
      "stateMutability": "nonpayable",
      "type": "constructor"
    },
    {
      "anonymous": false,
      "inputs": [
        {
          "indexed": false,
          "internalType": "address",
          "name": "account",
          "type": "address"
        }
      ],
      "name": "Paused",
      "type": "event"
    },
    {
      "anonymous": false,
      "inputs": [
        {
          "indexed": false,
          "internalType": "address",
          "name": "account",
          "type": "address"
        }
      ],
      "name": "Unpaused",
      "type": "event"
    },
    {
      "inputs": [],
      "name": "paused",
      "outputs": [
        {
          "internalType": "bool",
          "name": "",
          "type": "bool"
        }
      ],
      "stateMutability": "view",
      "type": "function"
    }
  ],
  "bytecode": "0x608060405234801561001057600080fd5b5060008060006101000a81548160ff02191690831515021790555060c5806100396000396000f3fe6080604052348015600f57600080fd5b506004361060285760003560e01c80635c975abb14602d575b600080fd5b60336047565b604051603e91906076565b60405180910390f35b60008060009054906101000a900460ff16905090565b60008115159050919050565b607081605d565b82525050565b6000602082019050608960008301846069565b9291505056fea264697066735822122022e805bd493d1e5a1e42c0e5ce0f3f3cb9ba2dd51f2a654fb7d2b1b4929f1f8964736f6c63430008140033",
  "linkReferences": {},
  "deployedLinkReferences": {}
}